{
  "abi": [
    {
      "type": "constructor",
      "inputs": [
        {
          "name": "_n",
          "type": "tuple",
          "internalType": "struct BigNumber",
          "components": [
            {
              "name": "val",
              "type": "bytes",
              "internalType": "bytes"
            },
            {
              "name": "bitlen",
              "type": "uint256",
              "internalType": "uint256"
            }
          ]
        },
        {
          "name": "_delta",
          "type": "uint256",
          "internalType": "uint256"
        },
        {
          "name": "_T",
          "type": "uint256",
          "internalType": "uint256"
        }
      ],
      "stateMutability": "nonpayable"
    },
    {
      "type": "function",
      "name": "T",
      "inputs": [],
      "outputs": [
        {
          "name": "",
          "type": "uint256",
          "internalType": "uint256"
        }
      ],
      "stateMutability": "view"
    },
    {
      "type": "function",
      "name": "delta",
      "inputs": [],
      "outputs": [
        {
          "name": "",
          "type": "uint256",
          "internalType": "uint256"
        }
      ],
      "stateMutability": "view"
    },
    {
      "type": "function",
      "name": "n",
      "inputs": [],
      "outputs": [
        {
          "name": "val",
          "type": "bytes",
          "internalType": "bytes"
        },
        {
          "name": "bitlen",
          "type": "uint256",
          "internalType": "uint256"
        }
      ],
      "stateMutability": "view"
    },
    {
      "type": "function",
      "name": "verifyPietrzak",
      "inputs": [
        {
          "name": "v",
          "type": "tuple[]",
          "internalType": "struct BigNumber[]",
          "components": [
            {
              "name": "val",
              "type": "bytes",
              "internalType": "bytes"
            },
            {
              "name": "bitlen",
              "type": "uint256",
              "internalType": "uint256"
            }
          ]
        },
        {
          "name": "x",
          "type": "tuple",
          "internalType": "struct BigNumber",
          "components": [
            {
              "name": "val",
              "type": "bytes",
              "internalType": "bytes"
            },
            {
              "name": "bitlen",
              "type": "uint256",
              "internalType": "uint256"
            }
          ]
        },
        {
          "name": "y",
          "type": "tuple",
          "internalType": "struct BigNumber",
          "components": [
            {
              "name": "val",
              "type": "bytes",
              "internalType": "bytes"
            },
            {
              "name": "bitlen",
              "type": "uint256",
              "internalType": "uint256"
            }
          ]
        }
      ],
      "outputs": [
        {
          "name": "",
          "type": "bool",
          "internalType": "bool"
        }
      ],
      "stateMutability": "view"
    },
    {
      "type": "error",
      "name": "BigNumbers__ShouldNotBeZero",
      "inputs": []
    }
  ],
  "bytecode": {
    "object": "0x604060c081523461032f576119fb8038038061001a81610333565b92833981019060608183031261032f5780516001600160401b039081811161032f57820190848285031261032f5784519085820182811082821117610251578652825181811161032f57830192601f86818601121561032f5784519460209284871161025157601f199661009384820189168601610333565b99818b5285828501011161032f5784815f928c838080980191015e8b010152888652015193828101948086528984890151980151985115159081610325575b50156102ed5787156102a95761010087101561026557518051938411610251575f54926001968785811c95168015610247575b828610146102335784848796116101df575b50819385116001146101805750505f92610175575b50505f19600383901b1c191690831b175f555b51905560805260a052516116a29081610359823960805181818161015501526102f2015260a051818181610133015261029c0152f35b015190505f8061012c565b879593929193165f8052835f20935f905b8282106101c657505084116101ae575b505050811b015f5561013f565b01515f1960f88460031b161c191690555f80806101a1565b8484015186558997909501949384019390810190610191565b9091929394505f8052825f208580880160051c82019285891061022a575b9188978b9297969594930160051c01915b82811061021c575050610117565b5f81558897508a910161020e565b925081926101fd565b634e487b7160e01b5f52602260045260245ffd5b94607f1694610105565b634e487b7160e01b5f52604160045260245ffd5b885162461bcd60e51b815260048101849052601b60248201527f64656c7461206d757374206265206c657373207468616e2032353600000000006044820152606490fd5b885162461bcd60e51b815260048101849052601b60248201527f54206d7573742062652067726561746572207468616e207a65726f00000000006044820152606490fd5b885162461bcd60e51b815260048101849052601160248201527024b73b30b634b21036b7b23ab63ab9903760791b6044820152606490fd5b905015155f6100d2565b5f80fd5b6040519190601f01601f191682016001600160401b038111838210176102515760405256fe6080604081815260049182361015610015575f80fd5b5f3560e01c90816312b495a8146102bf575080632bc80f3a146102675780632e52d606146101d95763dac7e0d61461004b575f80fd5b346101835760607ffffffffffffffffffffffffffffffffffffffffffffffffffffffffffffffffc3601126101835781359167ffffffffffffffff808411610183573660238501121561018357838201356024948282116101ad578160051b956020968651936100bd8983018661035e565b8452602488850191840101923684116101835760248101915b848310610187575050505050602435828111610183576100f990369085016104bc565b916044359081116101835761017a93610114913691016104bc565b84519061012082610315565b61012861039f565b8252600154878301527f0000000000000000000000000000000000000000000000000000000000000000937f0000000000000000000000000000000000000000000000000000000000000000936105bb565b90519015158152f35b5f80fd5b8235878111610183578a916101a283928736918701016104bc565b8152019201916100d6565b6041847f4e487b71000000000000000000000000000000000000000000000000000000005f525260245ffd5b5034610183575f7ffffffffffffffffffffffffffffffffffffffffffffffffffffffffffffffffc36011261018357606061021261039f565b917fffffffffffffffffffffffffffffffffffffffffffffffffffffffffffffffe0601f6001549483519584879586526020835193848093890152018787015e5f868387010152602085015201168101030190f35b5034610183575f7ffffffffffffffffffffffffffffffffffffffffffffffffffffffffffffffffc36011261018357602090517f00000000000000000000000000000000000000000000000000000000000000008152f35b34610183575f7ffffffffffffffffffffffffffffffffffffffffffffffffffffffffffffffffc360112610183576020907f00000000000000000000000000000000000000000000000000000000000000008152f35b6040810190811067ffffffffffffffff82111761033157604052565b7f4e487b71000000000000000000000000000000000000000000000000000000005f52604160045260245ffd5b90601f7fffffffffffffffffffffffffffffffffffffffffffffffffffffffffffffffe0910116810190811067ffffffffffffffff82111761033157604052565b604051905f8054906001908260011c600184169283156104b2575b602094858310851461048557828852879490811561044657506001146103eb575b50506103e99250038361035e565b565b5f8080527f290decd9548b62a8d60345a988386fc84ba6bc95484008f6362f93160ef3e56395935091905b81831061042e5750506103e993508201015f806103db565b85548884018501529485019487945091830191610416565b90506103e99593507fffffffffffffffffffffffffffffffffffffffffffffffffffffffffffffff0091501682840152151560051b8201015f806103db565b7f4e487b71000000000000000000000000000000000000000000000000000000005f52602260045260245ffd5b90607f16906103ba565b91909160408184031261018357604051906104d682610315565b819381359167ffffffffffffffff928381116101835781019180601f840112156101835782356020948111610331576040519161053a867fffffffffffffffffffffffffffffffffffffffffffffffffffffffffffffffe0601f850116018461035e565b8183528582860101116101835784815f9282809701838601378301015284520135910152565b6040519061056d82610315565b6020825260026020830152565b805182101561058e5760209160051b010190565b7f4e487b71000000000000000000000000000000000000000000000000000000005f52603260045260245ffd5b9295935f9486918715610949575f9270010000000000000000000000000000000089101561093c575b68010000000000000000811015610927575b640100000000811015610912575b620100008110156108fd575b6101008110156108e8575b60108110156108d3575b60048110156108be575b600211156108ac575b828181031161087f5786949288978a886106539b979b610560565b966040519761066189610315565b88526002602089015260015b156107af575b9082918289945f9f805184516106898a8861057a565b5151906106946109a7565b50604051918291602083019480516020819201875e830160208101915f83528051926020849201905e0160208101915f83528051926020849201905e01602081015f9052038082526020016106e9908261035e565b5190206040519060801b7fffffffffffffffffffffffffffffffff000000000000000000000000000000001660208201526010815261072781610315565b61073090610c15565b918261073b926109c0565b82610746898761057a565b5161075092610b47565b9b60011615159661077d96600198610793575b5061077290610778949561057a565b516109c0565b610b47565b96019760011c98978a8882988c9b9c989c61066d565b906107a58461077293610778976109c0565b945090508b610763565b9394959697505050508282038610156107d05790858a888a97969594610673565b96505061086b94506108659197935061087196926001821b906108076040516107f881610315565b60208152836020820152610c15565b916108106109a7565b50604080519461081f86610315565b60208652602086015f81526001610100602087015180941b95828760081c0160051b94858b52091b90528501602081019586835261085c87610315565b865201526109c0565b906109c0565b90610d45565b1561087b57600190565b5f90565b7f4e487b71000000000000000000000000000000000000000000000000000000005f52601160045260245ffd5b916001810180911161087f5791610638565b60021c926002810180911161087f579261062f565b60041c926004810180911161087f5792610625565b60081c926008810180911161087f579261061b565b60101c926010810180911161087f5792610610565b60201c926020810180911161087f5792610604565b60401c926040810180911161087f57926105f6565b506080925087831c6105e4565b60646040517f08c379a000000000000000000000000000000000000000000000000000000000815260206004820152601f60248201527f56616c7565206d7573742062652067726561746572207468616e207a65726f006044820152fd5b604051906109b482610315565b5f602083606081520152565b9190916109cb6109a7565b506109d68251610d58565b610b1d576060905192519151835190835191815193838594928593604051998a99838b528360209b8c9788809587828501528b60408501520191015e016060838c01015e0192016060838801015e6060828187019201018560057ffffffffffffffffffffffffffffffffffffffffffffffffffffffffffffffaba5a01fa15610b1b578092606081015b838503610adf575b7fffffffffffffffffffffffffffffffffffffffffffffffffffffffffffffffe00193845201606001604052610a9d82610d97565b908115610ab95760405192610ab184610315565b835282015290565b9150505f60405191610aca83610315565b808352818184015260405192610ab184610315565b83815115600114610af05750610a68565b7fffffffffffffffffffffffffffffffffffffffffffffffffffffffffffffffe09101940193610a60565bfe5b60046040517ff1a7cc2b000000000000000000000000000000000000000000000000000000008152fd5b610c029291610b546109a7565b50610b5d6109a7565b50610b98610b6b82846110e3565b610b73610560565b60405190610b8082610315565b815260026020820152610b9282610cc3565b916109c0565b91610ba38282610d45565b610c055791610bbb610b6b610bc193610bc69561127c565b9061127c565b611184565b610bce6109a7565b5060405190610bdc82610315565b602082526001602083015260405191610bf483610315565b8252600160208301526109c0565b90565b5050610c1090611184565b610bc6565b610c1d6109a7565b50610c266109a7565b9060209080516040519183601f83168015600114610cb6578103838101855284018101915b01905e8181518201016040528051905b828203610c78575b610c71918152808452610d97565b9082015290565b828101805115600114610c8b5750610c63565b7fffffffffffffffffffffffffffffffffffffffffffffffffffffffffffffffe09150910190610c5b565b5080840191838552610c4b565b610ccb6109a7565b5060405190610cd982610315565b6020825260406020808401925f845201519160017effffffffffffffffffffffffffffffffffffffffffffffffffffffffffffff8460071c160160051b908185526001610100600286091b90528301916020830193848352610d3a85610315565b845260011b91015290565b90610d4f91610ffc565b61087b57600190565b906020905f908284015b8451831015610d8d578051610d845783019183810180911161087f5791610d62565b50925050505f90565b5092505050600190565b610da081610d58565b610ff7576020810151908115600114610fcd577fffffffffffffffffffffffffffffffffffffffffffffffffffffffffffffffff82018060011c81178060021c178060041c178060081c178060101c178060201c178060401c177e818283848586878898a8b8c8d8e8f929395969799a9b9d9e9faaeb6bedeeff6001604051927ff8f9cbfae6cc78fbefe7cdc3a1793dfcf4f0e8bbd8cec470b6a28a7a5a3e1efd84527ff5ecf1b3e9debc68e1d9cfabc5997135bfb7a7a3938b7b606b5b4b3f2f1f0ffe60208501527ff6e4ed9ff2d6b458eadcdf97bd91692de2d4da8fd2d0ac50c6ae9a827252361660408501527fc8c0b887b0a8a4489c948c7f847c6125746c645c544c444038302820181008ff60608501527ff7cae577eec2a03cf3bad76fb589591debb2dd67e0aa9834bea6925f6a4a2e0e60808501527fe39ed557db96902cd38ed14fad815115c786af479b7e8324736353433727170760a08501527fc976c13bb96e881cb166a933a55e490d9d56952b8d4e801485467d236242260660c08501527f753a6d1b65325d0c552a4d1345224105391a310b29122104190a11030902010060e085015261010084016040528060801c17010260f81c60ff03015160f81c7f8000000000000000000000000000000000000000000000000000000000000000841160081b01921615610fc2575b7fffffffffffffffffffffffffffffffffffffffffffffffffffffffffffffffe0905b510160031b0190565b600190910190610f96565b90507fffffffffffffffffffffffffffffffffffffffffffffffffffffffffffffffe05f91610fb9565b505f90565b602090602081015160208401518082116110d957116110b2575180519251905f5b84811061102d5750505050505f90565b8381830101518482850101518082116110a6571161107d578381018091111561101d577f4e487b71000000000000000000000000000000000000000000000000000000005f52601160045260245ffd5b50505050507fffffffffffffffffffffffffffffffffffffffffffffffffffffffffffffffff90565b50505050505050600190565b5050507fffffffffffffffffffffffffffffffffffffffffffffffffffffffffffffffff90565b5050505050600190565b91906110ed6109a7565b9260209182820180511580611179575b6111655780511561115e57838201805115611155575f61111d8486610ffc565b1261113c5750611132925191519051916112e8565b91905b8452830152565b905061114e92915191519051916112e8565b9190611135565b50919450505050565b5093505050565b5050509091505f60405191610aca83610315565b5083820151156110fd565b61118c6109a7565b50805151602080830180519060029160021015611269578051907ffffffffffffffffffffffffffffffffffffffffffffffffffffffffffffffffe820191821161087f5752835192808401815b61121c575050508101908151156001146111f257505090565b517fffffffffffffffffffffffffffffffffffffffffffffffffffffffffffffffe0018152815290565b7fffffffffffffffffffffffffffffffffffffffffffffffffffffffffffffffe0809185841460011461126357818101515b8151861c9060fe1b17815201910190816111d9565b5f61124e565b50509150505f60405191610aca83610315565b91906112866109a7565b926020918282015115806112dd575b6112ca576112a38183610ffc565b600181036112b9575061113291519051906114d2565b196112ca5751905161114e916114d2565b50509091505f60405191610aca83610315565b508281015115611295565b929192604051905f928151908183019080518101906020848701019390815b61135d575050505083156001146113515792600160209394525b60051b90510180835282010160405260208101516001808260ff87161c1491141761134a579190565b9160010190565b50602080920192611321565b90919293968451825187510384116001146114035781810189526001809214907fffffffffffffffffffffffffffffffffffffffffffffffffffffffffffffffff14166001146113db57507fffffffffffffffffffffffffffffffffffffffffffffffffffffffffffffffe05f975b81019481019392019081611307565b7fffffffffffffffffffffffffffffffffffffffffffffffffffffffffffffffe090976113cc565b908498945190808284010186528082031983116001146114a5577fffffffffffffffffffffffffffffffffffffffffffffffffffffffffffffffff9115159015151791141660011461147b577fffffffffffffffffffffffffffffffffffffffffffffffffffffffffffffffe0805f985b01936113cc565b7fffffffffffffffffffffffffffffffffffffffffffffffffffffffffffffffe080600198611474565b5050507fffffffffffffffffffffffffffffffffffffffffffffffffffffffffffffffe080600198611474565b915f916040519184519180518381810397019101908385019182966020988691825b61154f575050505050602001925b8351611538577fffffffffffffffffffffffffffffffffffffffffffffffffffffffffffffffe086809201930193019291611502565b9450929060209250845201604052610c0282610d97565b8495929394989798518285116001146115d557818103845260018092149015166001146115ad57507fffffffffffffffffffffffffffffffffffffffffffffffffffffffffffffffe05f925b979897810195810194930191826114f4565b7fffffffffffffffffffffffffffffffffffffffffffffffffffffffffffffffe0909261159b565b8593955190828282030387526001928381147fffffffffffffffffffffffffffffffffffffffffffffffffffffffffffffffff8414169201111760011461164357507fffffffffffffffffffffffffffffffffffffffffffffffffffffffffffffffe0805f935b019461159b565b7fffffffffffffffffffffffffffffffffffffffffffffffffffffffffffffffe080919361163c56fea26469706673582212202fce92bd16c96bdec9dc5fb901e371721b37a95a57388850460267aa0849d14c64736f6c63430008190033",
    "linkReferences": {}
  },
  "methodIdentifiers": {
    "T()": "2bc80f3a",
    "delta()": "12b495a8",
    "n()": "2e52d606",
    "verifyPietrzak((bytes,uint256)[],(bytes,uint256),(bytes,uint256))": "dac7e0d6"
  },
  "id": 39
}